{
	"bank.sol": {
		"SimpleBank": {
			"abi": [
				{
					"inputs": [],
					"stateMutability": "nonpayable",
					"type": "constructor"
				},
				{
					"inputs": [],
					"name": "admin",
					"outputs": [
						{
							"internalType": "address",
							"name": "",
							"type": "address"
						}
					],
					"stateMutability": "view",
					"type": "function"
				},
				{
					"inputs": [
						{
							"internalType": "address",
							"name": "",
							"type": "address"
						}
					],
					"name": "balances",
					"outputs": [
						{
							"internalType": "uint256",
							"name": "",
							"type": "uint256"
						}
					],
					"stateMutability": "view",
					"type": "function"
				},
				{
					"inputs": [],
					"name": "deposit",
					"outputs": [],
					"stateMutability": "payable",
					"type": "function"
				},
				{
					"inputs": [
						{
							"internalType": "uint256",
							"name": "",
							"type": "uint256"
						}
					],
					"name": "top3Users",
					"outputs": [
						{
							"internalType": "address",
							"name": "",
							"type": "address"
						}
					],
					"stateMutability": "view",
					"type": "function"
				},
				{
					"inputs": [],
					"name": "withdraw",
					"outputs": [],
					"stateMutability": "nonpayable",
					"type": "function"
				}
			],
			"devdoc": {
				"kind": "dev",
				"methods": {},
				"version": 1
			},
			"evm": {
				"assembly": "    /* \"bank.sol\":57:2398  contract SimpleBank {... */\n  mstore(0x40, 0x80)\n    /* \"bank.sol\":350:399  constructor() {... */\n  callvalue\n  dup1\n  iszero\n  tag_1\n  jumpi\n  revert(0x00, 0x00)\ntag_1:\n  pop\n    /* \"bank.sol\":382:392  msg.sender */\n  caller\n    /* \"bank.sol\":374:379  admin */\n  0x00\n  0x00\n    /* \"bank.sol\":374:392  admin = msg.sender */\n  0x0100\n  exp\n  dup2\n  sload\n  dup2\n  0xffffffffffffffffffffffffffffffffffffffff\n  mul\n  not\n  and\n  swap1\n  dup4\n  0xffffffffffffffffffffffffffffffffffffffff\n  and\n  mul\n  or\n  swap1\n  sstore\n  pop\n    /* \"bank.sol\":57:2398  contract SimpleBank {... */\n  dataSize(sub_0)\n  dup1\n  dataOffset(sub_0)\n  0x00\n  codecopy\n  0x00\n  return\nstop\n\nsub_0: assembly {\n        /* \"bank.sol\":57:2398  contract SimpleBank {... */\n      mstore(0x40, 0x80)\n      jumpi(tag_1, lt(calldatasize, 0x04))\n      shr(0xe0, calldataload(0x00))\n      dup1\n      0x27e235e3\n      eq\n      tag_2\n      jumpi\n      dup1\n      0x3ccfd60b\n      eq\n      tag_3\n      jumpi\n      dup1\n      0x42e6fe58\n      eq\n      tag_4\n      jumpi\n      dup1\n      0xd0e30db0\n      eq\n      tag_5\n      jumpi\n      dup1\n      0xf851a440\n      eq\n      tag_6\n      jumpi\n    tag_1:\n      revert(0x00, 0x00)\n        /* \"bank.sol\":128:171  mapping(address => uint256) public balances */\n    tag_2:\n      callvalue\n      dup1\n      iszero\n      tag_7\n      jumpi\n      revert(0x00, 0x00)\n    tag_7:\n      pop\n      tag_8\n      0x04\n      dup1\n      calldatasize\n      sub\n      dup2\n      add\n      swap1\n      tag_9\n      swap2\n      swap1\n      tag_10\n      jump\t// in\n    tag_9:\n      tag_11\n      jump\t// in\n    tag_8:\n      mload(0x40)\n      tag_12\n      swap2\n      swap1\n      tag_13\n      jump\t// in\n    tag_12:\n      mload(0x40)\n      dup1\n      swap2\n      sub\n      swap1\n      return\n        /* \"bank.sol\":1965:2396  function withdraw() public {... */\n    tag_3:\n      callvalue\n      dup1\n      iszero\n      tag_14\n      jumpi\n      revert(0x00, 0x00)\n    tag_14:\n      pop\n      tag_15\n      tag_16\n      jump\t// in\n    tag_15:\n      stop\n        /* \"bank.sol\":214:241  address[3] public top3Users */\n    tag_4:\n      callvalue\n      dup1\n      iszero\n      tag_17\n      jumpi\n      revert(0x00, 0x00)\n    tag_17:\n      pop\n      tag_18\n      0x04\n      dup1\n      calldatasize\n      sub\n      dup2\n      add\n      swap1\n      tag_19\n      swap2\n      swap1\n      tag_20\n      jump\t// in\n    tag_19:\n      tag_21\n      jump\t// in\n    tag_18:\n      mload(0x40)\n      tag_22\n      swap2\n      swap1\n      tag_23\n      jump\t// in\n    tag_22:\n      mload(0x40)\n      dup1\n      swap2\n      sub\n      swap1\n      return\n        /* \"bank.sol\":475:751  function deposit() public payable {... */\n    tag_5:\n      tag_24\n      tag_25\n      jump\t// in\n    tag_24:\n      stop\n        /* \"bank.sol\":83:103  address public admin */\n    tag_6:\n      callvalue\n      dup1\n      iszero\n      tag_26\n      jumpi\n      revert(0x00, 0x00)\n    tag_26:\n      pop\n      tag_27\n      tag_28\n      jump\t// in\n    tag_27:\n      mload(0x40)\n      tag_29\n      swap2\n      swap1\n      tag_23\n      jump\t// in\n    tag_29:\n      mload(0x40)\n      dup1\n      swap2\n      sub\n      swap1\n      return\n        /* \"bank.sol\":128:171  mapping(address => uint256) public balances */\n    tag_11:\n      mstore(0x20, 0x01)\n      dup1\n      0x00\n      mstore\n      keccak256(0x00, 0x40)\n      0x00\n      swap2\n      pop\n      swap1\n      pop\n      sload\n      dup2\n      jump\t// out\n        /* \"bank.sol\":1965:2396  function withdraw() public {... */\n    tag_16:\n        /* \"bank.sol\":2024:2029  admin */\n      0x00\n      0x00\n      swap1\n      sload\n      swap1\n      0x0100\n      exp\n      swap1\n      div\n      0xffffffffffffffffffffffffffffffffffffffff\n      and\n        /* \"bank.sol\":2010:2029  msg.sender == admin */\n      0xffffffffffffffffffffffffffffffffffffffff\n      and\n        /* \"bank.sol\":2010:2020  msg.sender */\n      caller\n        /* \"bank.sol\":2010:2029  msg.sender == admin */\n      0xffffffffffffffffffffffffffffffffffffffff\n      and\n      eq\n        /* \"bank.sol\":2002:2057  require(msg.sender == admin, \"Only admin can withdraw\") */\n      tag_31\n      jumpi\n      mload(0x40)\n      0x08c379a000000000000000000000000000000000000000000000000000000000\n      dup2\n      mstore\n      0x04\n      add\n      tag_32\n      swap1\n      tag_33\n      jump\t// in\n    tag_32:\n      mload(0x40)\n      dup1\n      swap2\n      sub\n      swap1\n      revert\n    tag_31:\n        /* \"bank.sol\":2076:2090  uint256 amount */\n      0x00\n        /* \"bank.sol\":2093:2114  address(this).balance */\n      selfbalance\n        /* \"bank.sol\":2076:2114  uint256 amount = address(this).balance */\n      swap1\n      pop\n        /* \"bank.sol\":2141:2142  0 */\n      0x00\n        /* \"bank.sol\":2132:2138  amount */\n      dup2\n        /* \"bank.sol\":2132:2142  amount > 0 */\n      gt\n        /* \"bank.sol\":2124:2165  require(amount > 0, \"No ETH to withdraw\") */\n      tag_34\n      jumpi\n      mload(0x40)\n      0x08c379a000000000000000000000000000000000000000000000000000000000\n      dup2\n      mstore\n      0x04\n      add\n      tag_35\n      swap1\n      tag_36\n      jump\t// in\n    tag_35:\n      mload(0x40)\n      dup1\n      swap2\n      sub\n      swap1\n      revert\n    tag_34:\n        /* \"bank.sol\":2220:2232  bool success */\n      0x00\n        /* \"bank.sol\":2246:2251  admin */\n      0x00\n      0x00\n      swap1\n      sload\n      swap1\n      0x0100\n      exp\n      swap1\n      div\n      0xffffffffffffffffffffffffffffffffffffffff\n      and\n        /* \"bank.sol\":2238:2257  payable(admin).call */\n      0xffffffffffffffffffffffffffffffffffffffff\n      and\n        /* \"bank.sol\":2265:2271  amount */\n      dup3\n        /* \"bank.sol\":2238:2276  payable(admin).call{value: amount}(\"\") */\n      mload(0x40)\n      tag_37\n      swap1\n      tag_38\n      jump\t// in\n    tag_37:\n      0x00\n      mload(0x40)\n      dup1\n      dup4\n      sub\n      dup2\n      dup6\n      dup8\n      gas\n      call\n      swap3\n      pop\n      pop\n      pop\n      returndatasize\n      dup1\n      0x00\n      dup2\n      eq\n      tag_41\n      jumpi\n      mload(0x40)\n      swap2\n      pop\n      and(add(returndatasize, 0x3f), not(0x1f))\n      dup3\n      add\n      0x40\n      mstore\n      returndatasize\n      dup3\n      mstore\n      returndatasize\n      0x00\n      0x20\n      dup5\n      add\n      returndatacopy\n      jump(tag_40)\n    tag_41:\n      0x60\n      swap2\n      pop\n    tag_40:\n      pop\n        /* \"bank.sol\":2219:2276  (bool success, ) = payable(admin).call{value: amount}(\"\") */\n      pop\n      swap1\n      pop\n        /* \"bank.sol\":2357:2364  success */\n      dup1\n        /* \"bank.sol\":2349:2388  require(success, \"ETH Transfer Failed\") */\n      tag_42\n      jumpi\n      mload(0x40)\n      0x08c379a000000000000000000000000000000000000000000000000000000000\n      dup2\n      mstore\n      0x04\n      add\n      tag_43\n      swap1\n      tag_44\n      jump\t// in\n    tag_43:\n      mload(0x40)\n      dup1\n      swap2\n      sub\n      swap1\n      revert\n    tag_42:\n        /* \"bank.sol\":1992:2396  {... */\n      pop\n      pop\n        /* \"bank.sol\":1965:2396  function withdraw() public {... */\n      jump\t// out\n        /* \"bank.sol\":214:241  address[3] public top3Users */\n    tag_21:\n      0x02\n      dup2\n      0x03\n      dup2\n      lt\n      tag_45\n      jumpi\n      0x00\n      dup1\n      revert\n    tag_45:\n      add\n      0x00\n      swap2\n      pop\n      sload\n      swap1\n      0x0100\n      exp\n      swap1\n      div\n      0xffffffffffffffffffffffffffffffffffffffff\n      and\n      dup2\n      jump\t// out\n        /* \"bank.sol\":475:751  function deposit() public payable {... */\n    tag_25:\n        /* \"bank.sol\":539:540  0 */\n      0x00\n        /* \"bank.sol\":527:536  msg.value */\n      callvalue\n        /* \"bank.sol\":527:540  msg.value > 0 */\n      gt\n        /* \"bank.sol\":519:582  require(msg.value > 0, \"Deposit amount must be greater than 0\") */\n      tag_48\n      jumpi\n      mload(0x40)\n      0x08c379a000000000000000000000000000000000000000000000000000000000\n      dup2\n      mstore\n      0x04\n      add\n      tag_49\n      swap1\n      tag_50\n      jump\t// in\n    tag_49:\n      mload(0x40)\n      dup1\n      swap2\n      sub\n      swap1\n      revert\n    tag_48:\n        /* \"bank.sol\":665:674  msg.value */\n      callvalue\n        /* \"bank.sol\":641:649  balances */\n      0x01\n        /* \"bank.sol\":641:661  balances[msg.sender] */\n      0x00\n        /* \"bank.sol\":650:660  msg.sender */\n      caller\n        /* \"bank.sol\":641:661  balances[msg.sender] */\n      0xffffffffffffffffffffffffffffffffffffffff\n      and\n      0xffffffffffffffffffffffffffffffffffffffff\n      and\n      dup2\n      mstore\n      0x20\n      add\n      swap1\n      dup2\n      mstore\n      0x20\n      add\n      0x00\n      keccak256\n      0x00\n        /* \"bank.sol\":641:674  balances[msg.sender] += msg.value */\n      dup3\n      dup3\n      sload\n      tag_51\n      swap2\n      swap1\n      tag_52\n      jump\t// in\n    tag_51:\n      swap3\n      pop\n      pop\n      dup2\n      swap1\n      sstore\n      pop\n        /* \"bank.sol\":721:744  _updateTop3(msg.sender) */\n      tag_53\n        /* \"bank.sol\":733:743  msg.sender */\n      caller\n        /* \"bank.sol\":721:732  _updateTop3 */\n      tag_54\n        /* \"bank.sol\":721:744  _updateTop3(msg.sender) */\n      jump\t// in\n    tag_53:\n        /* \"bank.sol\":475:751  function deposit() public payable {... */\n      jump\t// out\n        /* \"bank.sol\":83:103  address public admin */\n    tag_28:\n      0x00\n      0x00\n      swap1\n      sload\n      swap1\n      0x0100\n      exp\n      swap1\n      div\n      0xffffffffffffffffffffffffffffffffffffffff\n      and\n      dup2\n      jump\t// out\n        /* \"bank.sol\":807:1483  function _updateTop3(address _user) internal {... */\n    tag_54:\n        /* \"bank.sol\":1002:1008  uint i */\n      0x00\n        /* \"bank.sol\":1011:1012  0 */\n      0x00\n        /* \"bank.sol\":1002:1012  uint i = 0 */\n      swap1\n      pop\n        /* \"bank.sol\":997:1224  for (uint i = 0; i < 3; i++) {... */\n    tag_56:\n        /* \"bank.sol\":1018:1019  3 */\n      0x03\n        /* \"bank.sol\":1014:1015  i */\n      dup2\n        /* \"bank.sol\":1014:1019  i < 3 */\n      lt\n        /* \"bank.sol\":997:1224  for (uint i = 0; i < 3; i++) {... */\n      iszero\n      tag_57\n      jumpi\n        /* \"bank.sol\":1132:1141  top3Users */\n      0x02\n        /* \"bank.sol\":1142:1143  i */\n      dup2\n        /* \"bank.sol\":1132:1144  top3Users[i] */\n      0x03\n      dup2\n      lt\n      tag_59\n      jumpi\n      tag_60\n      tag_61\n      jump\t// in\n    tag_60:\n    tag_59:\n      add\n      0x00\n      swap1\n      sload\n      swap1\n      0x0100\n      exp\n      swap1\n      div\n      0xffffffffffffffffffffffffffffffffffffffff\n      and\n        /* \"bank.sol\":1123:1144  _user == top3Users[i] */\n      0xffffffffffffffffffffffffffffffffffffffff\n      and\n        /* \"bank.sol\":1123:1128  _user */\n      dup3\n        /* \"bank.sol\":1123:1144  _user == top3Users[i] */\n      0xffffffffffffffffffffffffffffffffffffffff\n      and\n      sub\n        /* \"bank.sol\":1119:1214  if (_user == top3Users[i]) {... */\n      tag_63\n      jumpi\n        /* \"bank.sol\":1164:1175  _sortTop3() */\n      tag_64\n        /* \"bank.sol\":1164:1173  _sortTop3 */\n      tag_65\n        /* \"bank.sol\":1164:1175  _sortTop3() */\n      jump\t// in\n    tag_64:\n        /* \"bank.sol\":1193:1200  return; */\n      pop\n      jump(tag_55)\n        /* \"bank.sol\":1119:1214  if (_user == top3Users[i]) {... */\n    tag_63:\n        /* \"bank.sol\":1021:1024  i++ */\n      dup1\n      dup1\n      0x01\n      add\n      swap2\n      pop\n      pop\n        /* \"bank.sol\":997:1224  for (uint i = 0; i < 3; i++) {... */\n      jump(tag_56)\n    tag_57:\n      pop\n        /* \"bank.sol\":1345:1353  balances */\n      0x01\n        /* \"bank.sol\":1345:1367  balances[top3Users[2]] */\n      0x00\n        /* \"bank.sol\":1354:1363  top3Users */\n      0x02\n        /* \"bank.sol\":1364:1365  2 */\n      dup1\n        /* \"bank.sol\":1354:1366  top3Users[2] */\n      0x03\n      dup2\n      lt\n      tag_66\n      jumpi\n      tag_67\n      tag_61\n      jump\t// in\n    tag_67:\n    tag_66:\n      add\n      0x00\n      swap1\n      sload\n      swap1\n      0x0100\n      exp\n      swap1\n      div\n      0xffffffffffffffffffffffffffffffffffffffff\n      and\n        /* \"bank.sol\":1345:1367  balances[top3Users[2]] */\n      0xffffffffffffffffffffffffffffffffffffffff\n      and\n      0xffffffffffffffffffffffffffffffffffffffff\n      and\n      dup2\n      mstore\n      0x20\n      add\n      swap1\n      dup2\n      mstore\n      0x20\n      add\n      0x00\n      keccak256\n      sload\n        /* \"bank.sol\":1327:1335  balances */\n      0x01\n        /* \"bank.sol\":1327:1342  balances[_user] */\n      0x00\n        /* \"bank.sol\":1336:1341  _user */\n      dup4\n        /* \"bank.sol\":1327:1342  balances[_user] */\n      0xffffffffffffffffffffffffffffffffffffffff\n      and\n      0xffffffffffffffffffffffffffffffffffffffff\n      and\n      dup2\n      mstore\n      0x20\n      add\n      swap1\n      dup2\n      mstore\n      0x20\n      add\n      0x00\n      keccak256\n      sload\n        /* \"bank.sol\":1327:1367  balances[_user] > balances[top3Users[2]] */\n      gt\n        /* \"bank.sol\":1323:1477  if (balances[_user] > balances[top3Users[2]]) {... */\n      iszero\n      tag_69\n      jumpi\n        /* \"bank.sol\":1398:1403  _user */\n      dup1\n        /* \"bank.sol\":1383:1392  top3Users */\n      0x02\n        /* \"bank.sol\":1393:1394  2 */\n      dup1\n        /* \"bank.sol\":1383:1395  top3Users[2] */\n      0x03\n      dup2\n      lt\n      tag_70\n      jumpi\n      tag_71\n      tag_61\n      jump\t// in\n    tag_71:\n    tag_70:\n      add\n      0x00\n        /* \"bank.sol\":1383:1403  top3Users[2] = _user */\n      0x0100\n      exp\n      dup2\n      sload\n      dup2\n      0xffffffffffffffffffffffffffffffffffffffff\n      mul\n      not\n      and\n      swap1\n      dup4\n      0xffffffffffffffffffffffffffffffffffffffff\n      and\n      mul\n      or\n      swap1\n      sstore\n      pop\n        /* \"bank.sol\":1439:1450  _sortTop3() */\n      tag_73\n        /* \"bank.sol\":1439:1448  _sortTop3 */\n      tag_65\n        /* \"bank.sol\":1439:1450  _sortTop3() */\n      jump\t// in\n    tag_73:\n        /* \"bank.sol\":1323:1477  if (balances[_user] > balances[top3Users[2]]) {... */\n    tag_69:\n        /* \"bank.sol\":807:1483  function _updateTop3(address _user) internal {... */\n    tag_55:\n      pop\n      jump\t// out\n        /* \"bank.sol\":1518:1905  function _sortTop3() internal {... */\n    tag_65:\n        /* \"bank.sol\":1563:1569  uint i */\n      0x00\n        /* \"bank.sol\":1572:1573  0 */\n      0x00\n        /* \"bank.sol\":1563:1573  uint i = 0 */\n      swap1\n      pop\n        /* \"bank.sol\":1558:1899  for (uint i = 0; i < 2; i++) {... */\n    tag_75:\n        /* \"bank.sol\":1579:1580  2 */\n      0x02\n        /* \"bank.sol\":1575:1576  i */\n      dup2\n        /* \"bank.sol\":1575:1580  i < 2 */\n      lt\n        /* \"bank.sol\":1558:1899  for (uint i = 0; i < 2; i++) {... */\n      iszero\n      tag_76\n      jumpi\n        /* \"bank.sol\":1606:1612  uint j */\n      0x00\n        /* \"bank.sol\":1615:1616  0 */\n      0x00\n        /* \"bank.sol\":1606:1616  uint j = 0 */\n      swap1\n      pop\n        /* \"bank.sol\":1601:1889  for (uint j = 0; j < 2 - i; j++) {... */\n    tag_78:\n        /* \"bank.sol\":1626:1627  i */\n      dup2\n        /* \"bank.sol\":1622:1623  2 */\n      0x02\n        /* \"bank.sol\":1622:1627  2 - i */\n      tag_81\n      swap2\n      swap1\n      tag_82\n      jump\t// in\n    tag_81:\n        /* \"bank.sol\":1618:1619  j */\n      dup2\n        /* \"bank.sol\":1618:1627  j < 2 - i */\n      lt\n        /* \"bank.sol\":1601:1889  for (uint j = 0; j < 2 - i; j++) {... */\n      iszero\n      tag_79\n      jumpi\n        /* \"bank.sol\":1681:1689  balances */\n      0x01\n        /* \"bank.sol\":1681:1707  balances[top3Users[j + 1]] */\n      0x00\n        /* \"bank.sol\":1690:1699  top3Users */\n      0x02\n        /* \"bank.sol\":1704:1705  1 */\n      0x01\n        /* \"bank.sol\":1700:1701  j */\n      dup5\n        /* \"bank.sol\":1700:1705  j + 1 */\n      tag_83\n      swap2\n      swap1\n      tag_52\n      jump\t// in\n    tag_83:\n        /* \"bank.sol\":1690:1706  top3Users[j + 1] */\n      0x03\n      dup2\n      lt\n      tag_84\n      jumpi\n      tag_85\n      tag_61\n      jump\t// in\n    tag_85:\n    tag_84:\n      add\n      0x00\n      swap1\n      sload\n      swap1\n      0x0100\n      exp\n      swap1\n      div\n      0xffffffffffffffffffffffffffffffffffffffff\n      and\n        /* \"bank.sol\":1681:1707  balances[top3Users[j + 1]] */\n      0xffffffffffffffffffffffffffffffffffffffff\n      and\n      0xffffffffffffffffffffffffffffffffffffffff\n      and\n      dup2\n      mstore\n      0x20\n      add\n      swap1\n      dup2\n      mstore\n      0x20\n      add\n      0x00\n      keccak256\n      sload\n        /* \"bank.sol\":1656:1664  balances */\n      0x01\n        /* \"bank.sol\":1656:1678  balances[top3Users[j]] */\n      0x00\n        /* \"bank.sol\":1665:1674  top3Users */\n      0x02\n        /* \"bank.sol\":1675:1676  j */\n      dup5\n        /* \"bank.sol\":1665:1677  top3Users[j] */\n      0x03\n      dup2\n      lt\n      tag_87\n      jumpi\n      tag_88\n      tag_61\n      jump\t// in\n    tag_88:\n    tag_87:\n      add\n      0x00\n      swap1\n      sload\n      swap1\n      0x0100\n      exp\n      swap1\n      div\n      0xffffffffffffffffffffffffffffffffffffffff\n      and\n        /* \"bank.sol\":1656:1678  balances[top3Users[j]] */\n      0xffffffffffffffffffffffffffffffffffffffff\n      and\n      0xffffffffffffffffffffffffffffffffffffffff\n      and\n      dup2\n      mstore\n      0x20\n      add\n      swap1\n      dup2\n      mstore\n      0x20\n      add\n      0x00\n      keccak256\n      sload\n        /* \"bank.sol\":1656:1707  balances[top3Users[j]] < balances[top3Users[j + 1]] */\n      lt\n        /* \"bank.sol\":1652:1875  if (balances[top3Users[j]] < balances[top3Users[j + 1]]) {... */\n      iszero\n      tag_90\n      jumpi\n        /* \"bank.sol\":1731:1743  address temp */\n      0x00\n        /* \"bank.sol\":1746:1755  top3Users */\n      0x02\n        /* \"bank.sol\":1756:1757  j */\n      dup3\n        /* \"bank.sol\":1746:1758  top3Users[j] */\n      0x03\n      dup2\n      lt\n      tag_91\n      jumpi\n      tag_92\n      tag_61\n      jump\t// in\n    tag_92:\n    tag_91:\n      add\n      0x00\n      swap1\n      sload\n      swap1\n      0x0100\n      exp\n      swap1\n      div\n      0xffffffffffffffffffffffffffffffffffffffff\n      and\n        /* \"bank.sol\":1731:1758  address temp = top3Users[j] */\n      swap1\n      pop\n        /* \"bank.sol\":1795:1804  top3Users */\n      0x02\n        /* \"bank.sol\":1809:1810  1 */\n      0x01\n        /* \"bank.sol\":1805:1806  j */\n      dup4\n        /* \"bank.sol\":1805:1810  j + 1 */\n      tag_94\n      swap2\n      swap1\n      tag_52\n      jump\t// in\n    tag_94:\n        /* \"bank.sol\":1795:1811  top3Users[j + 1] */\n      0x03\n      dup2\n      lt\n      tag_95\n      jumpi\n      tag_96\n      tag_61\n      jump\t// in\n    tag_96:\n    tag_95:\n      add\n      0x00\n      swap1\n      sload\n      swap1\n      0x0100\n      exp\n      swap1\n      div\n      0xffffffffffffffffffffffffffffffffffffffff\n      and\n        /* \"bank.sol\":1780:1789  top3Users */\n      0x02\n        /* \"bank.sol\":1790:1791  j */\n      dup4\n        /* \"bank.sol\":1780:1792  top3Users[j] */\n      0x03\n      dup2\n      lt\n      tag_98\n      jumpi\n      tag_99\n      tag_61\n      jump\t// in\n    tag_99:\n    tag_98:\n      add\n      0x00\n        /* \"bank.sol\":1780:1811  top3Users[j] = top3Users[j + 1] */\n      0x0100\n      exp\n      dup2\n      sload\n      dup2\n      0xffffffffffffffffffffffffffffffffffffffff\n      mul\n      not\n      and\n      swap1\n      dup4\n      0xffffffffffffffffffffffffffffffffffffffff\n      and\n      mul\n      or\n      swap1\n      sstore\n      pop\n        /* \"bank.sol\":1852:1856  temp */\n      dup1\n        /* \"bank.sol\":1833:1842  top3Users */\n      0x02\n        /* \"bank.sol\":1847:1848  1 */\n      0x01\n        /* \"bank.sol\":1843:1844  j */\n      dup5\n        /* \"bank.sol\":1843:1848  j + 1 */\n      tag_101\n      swap2\n      swap1\n      tag_52\n      jump\t// in\n    tag_101:\n        /* \"bank.sol\":1833:1849  top3Users[j + 1] */\n      0x03\n      dup2\n      lt\n      tag_102\n      jumpi\n      tag_103\n      tag_61\n      jump\t// in\n    tag_103:\n    tag_102:\n      add\n      0x00\n        /* \"bank.sol\":1833:1856  top3Users[j + 1] = temp */\n      0x0100\n      exp\n      dup2\n      sload\n      dup2\n      0xffffffffffffffffffffffffffffffffffffffff\n      mul\n      not\n      and\n      swap1\n      dup4\n      0xffffffffffffffffffffffffffffffffffffffff\n      and\n      mul\n      or\n      swap1\n      sstore\n      pop\n        /* \"bank.sol\":1709:1875  {... */\n      pop\n        /* \"bank.sol\":1652:1875  if (balances[top3Users[j]] < balances[top3Users[j + 1]]) {... */\n    tag_90:\n        /* \"bank.sol\":1629:1632  j++ */\n      dup1\n      dup1\n      0x01\n      add\n      swap2\n      pop\n      pop\n        /* \"bank.sol\":1601:1889  for (uint j = 0; j < 2 - i; j++) {... */\n      jump(tag_78)\n    tag_79:\n      pop\n        /* \"bank.sol\":1582:1585  i++ */\n      dup1\n      dup1\n      0x01\n      add\n      swap2\n      pop\n      pop\n        /* \"bank.sol\":1558:1899  for (uint i = 0; i < 2; i++) {... */\n      jump(tag_75)\n    tag_76:\n      pop\n        /* \"bank.sol\":1518:1905  function _sortTop3() internal {... */\n      jump\t// out\n        /* \"#utility.yul\":88:205   */\n    tag_106:\n        /* \"#utility.yul\":197:198   */\n      0x00\n        /* \"#utility.yul\":194:195   */\n      0x00\n        /* \"#utility.yul\":187:199   */\n      revert\n        /* \"#utility.yul\":334:460   */\n    tag_108:\n        /* \"#utility.yul\":371:378   */\n      0x00\n        /* \"#utility.yul\":411:453   */\n      0xffffffffffffffffffffffffffffffffffffffff\n        /* \"#utility.yul\":404:409   */\n      dup3\n        /* \"#utility.yul\":400:454   */\n      and\n        /* \"#utility.yul\":389:454   */\n      swap1\n      pop\n        /* \"#utility.yul\":334:460   */\n      swap2\n      swap1\n      pop\n      jump\t// out\n        /* \"#utility.yul\":466:562   */\n    tag_109:\n        /* \"#utility.yul\":503:510   */\n      0x00\n        /* \"#utility.yul\":532:556   */\n      tag_136\n        /* \"#utility.yul\":550:555   */\n      dup3\n        /* \"#utility.yul\":532:556   */\n      tag_108\n      jump\t// in\n    tag_136:\n        /* \"#utility.yul\":521:556   */\n      swap1\n      pop\n        /* \"#utility.yul\":466:562   */\n      swap2\n      swap1\n      pop\n      jump\t// out\n        /* \"#utility.yul\":568:690   */\n    tag_110:\n        /* \"#utility.yul\":641:665   */\n      tag_138\n        /* \"#utility.yul\":659:664   */\n      dup2\n        /* \"#utility.yul\":641:665   */\n      tag_109\n      jump\t// in\n    tag_138:\n        /* \"#utility.yul\":634:639   */\n      dup2\n        /* \"#utility.yul\":631:666   */\n      eq\n        /* \"#utility.yul\":621:684   */\n      tag_139\n      jumpi\n        /* \"#utility.yul\":680:681   */\n      0x00\n        /* \"#utility.yul\":677:678   */\n      0x00\n        /* \"#utility.yul\":670:682   */\n      revert\n        /* \"#utility.yul\":621:684   */\n    tag_139:\n        /* \"#utility.yul\":568:690   */\n      pop\n      jump\t// out\n        /* \"#utility.yul\":696:835   */\n    tag_111:\n        /* \"#utility.yul\":742:747   */\n      0x00\n        /* \"#utility.yul\":780:786   */\n      dup2\n        /* \"#utility.yul\":767:787   */\n      calldataload\n        /* \"#utility.yul\":758:787   */\n      swap1\n      pop\n        /* \"#utility.yul\":796:829   */\n      tag_141\n        /* \"#utility.yul\":823:828   */\n      dup2\n        /* \"#utility.yul\":796:829   */\n      tag_110\n      jump\t// in\n    tag_141:\n        /* \"#utility.yul\":696:835   */\n      swap3\n      swap2\n      pop\n      pop\n      jump\t// out\n        /* \"#utility.yul\":841:1170   */\n    tag_10:\n        /* \"#utility.yul\":900:906   */\n      0x00\n        /* \"#utility.yul\":949:951   */\n      0x20\n        /* \"#utility.yul\":937:946   */\n      dup3\n        /* \"#utility.yul\":928:935   */\n      dup5\n        /* \"#utility.yul\":924:947   */\n      sub\n        /* \"#utility.yul\":920:952   */\n      slt\n        /* \"#utility.yul\":917:1036   */\n      iszero\n      tag_143\n      jumpi\n        /* \"#utility.yul\":955:1034   */\n      tag_144\n      tag_106\n      jump\t// in\n    tag_144:\n        /* \"#utility.yul\":917:1036   */\n    tag_143:\n        /* \"#utility.yul\":1075:1076   */\n      0x00\n        /* \"#utility.yul\":1100:1153   */\n      tag_145\n        /* \"#utility.yul\":1145:1152   */\n      dup5\n        /* \"#utility.yul\":1136:1142   */\n      dup3\n        /* \"#utility.yul\":1125:1134   */\n      dup6\n        /* \"#utility.yul\":1121:1143   */\n      add\n        /* \"#utility.yul\":1100:1153   */\n      tag_111\n      jump\t// in\n    tag_145:\n        /* \"#utility.yul\":1090:1153   */\n      swap2\n      pop\n        /* \"#utility.yul\":1046:1163   */\n      pop\n        /* \"#utility.yul\":841:1170   */\n      swap3\n      swap2\n      pop\n      pop\n      jump\t// out\n        /* \"#utility.yul\":1176:1253   */\n    tag_112:\n        /* \"#utility.yul\":1213:1220   */\n      0x00\n        /* \"#utility.yul\":1242:1247   */\n      dup2\n        /* \"#utility.yul\":1231:1247   */\n      swap1\n      pop\n        /* \"#utility.yul\":1176:1253   */\n      swap2\n      swap1\n      pop\n      jump\t// out\n        /* \"#utility.yul\":1259:1377   */\n    tag_113:\n        /* \"#utility.yul\":1346:1370   */\n      tag_148\n        /* \"#utility.yul\":1364:1369   */\n      dup2\n        /* \"#utility.yul\":1346:1370   */\n      tag_112\n      jump\t// in\n    tag_148:\n        /* \"#utility.yul\":1341:1344   */\n      dup3\n        /* \"#utility.yul\":1334:1371   */\n      mstore\n        /* \"#utility.yul\":1259:1377   */\n      pop\n      pop\n      jump\t// out\n        /* \"#utility.yul\":1383:1605   */\n    tag_13:\n        /* \"#utility.yul\":1476:1480   */\n      0x00\n        /* \"#utility.yul\":1514:1516   */\n      0x20\n        /* \"#utility.yul\":1503:1512   */\n      dup3\n        /* \"#utility.yul\":1499:1517   */\n      add\n        /* \"#utility.yul\":1491:1517   */\n      swap1\n      pop\n        /* \"#utility.yul\":1527:1598   */\n      tag_150\n        /* \"#utility.yul\":1595:1596   */\n      0x00\n        /* \"#utility.yul\":1584:1593   */\n      dup4\n        /* \"#utility.yul\":1580:1597   */\n      add\n        /* \"#utility.yul\":1571:1577   */\n      dup5\n        /* \"#utility.yul\":1527:1598   */\n      tag_113\n      jump\t// in\n    tag_150:\n        /* \"#utility.yul\":1383:1605   */\n      swap3\n      swap2\n      pop\n      pop\n      jump\t// out\n        /* \"#utility.yul\":1611:1733   */\n    tag_114:\n        /* \"#utility.yul\":1684:1708   */\n      tag_152\n        /* \"#utility.yul\":1702:1707   */\n      dup2\n        /* \"#utility.yul\":1684:1708   */\n      tag_112\n      jump\t// in\n    tag_152:\n        /* \"#utility.yul\":1677:1682   */\n      dup2\n        /* \"#utility.yul\":1674:1709   */\n      eq\n        /* \"#utility.yul\":1664:1727   */\n      tag_153\n      jumpi\n        /* \"#utility.yul\":1723:1724   */\n      0x00\n        /* \"#utility.yul\":1720:1721   */\n      0x00\n        /* \"#utility.yul\":1713:1725   */\n      revert\n        /* \"#utility.yul\":1664:1727   */\n    tag_153:\n        /* \"#utility.yul\":1611:1733   */\n      pop\n      jump\t// out\n        /* \"#utility.yul\":1739:1878   */\n    tag_115:\n        /* \"#utility.yul\":1785:1790   */\n      0x00\n        /* \"#utility.yul\":1823:1829   */\n      dup2\n        /* \"#utility.yul\":1810:1830   */\n      calldataload\n        /* \"#utility.yul\":1801:1830   */\n      swap1\n      pop\n        /* \"#utility.yul\":1839:1872   */\n      tag_155\n        /* \"#utility.yul\":1866:1871   */\n      dup2\n        /* \"#utility.yul\":1839:1872   */\n      tag_114\n      jump\t// in\n    tag_155:\n        /* \"#utility.yul\":1739:1878   */\n      swap3\n      swap2\n      pop\n      pop\n      jump\t// out\n        /* \"#utility.yul\":1884:2213   */\n    tag_20:\n        /* \"#utility.yul\":1943:1949   */\n      0x00\n        /* \"#utility.yul\":1992:1994   */\n      0x20\n        /* \"#utility.yul\":1980:1989   */\n      dup3\n        /* \"#utility.yul\":1971:1978   */\n      dup5\n        /* \"#utility.yul\":1967:1990   */\n      sub\n        /* \"#utility.yul\":1963:1995   */\n      slt\n        /* \"#utility.yul\":1960:2079   */\n      iszero\n      tag_157\n      jumpi\n        /* \"#utility.yul\":1998:2077   */\n      tag_158\n      tag_106\n      jump\t// in\n    tag_158:\n        /* \"#utility.yul\":1960:2079   */\n    tag_157:\n        /* \"#utility.yul\":2118:2119   */\n      0x00\n        /* \"#utility.yul\":2143:2196   */\n      tag_159\n        /* \"#utility.yul\":2188:2195   */\n      dup5\n        /* \"#utility.yul\":2179:2185   */\n      dup3\n        /* \"#utility.yul\":2168:2177   */\n      dup6\n        /* \"#utility.yul\":2164:2186   */\n      add\n        /* \"#utility.yul\":2143:2196   */\n      tag_115\n      jump\t// in\n    tag_159:\n        /* \"#utility.yul\":2133:2196   */\n      swap2\n      pop\n        /* \"#utility.yul\":2089:2206   */\n      pop\n        /* \"#utility.yul\":1884:2213   */\n      swap3\n      swap2\n      pop\n      pop\n      jump\t// out\n        /* \"#utility.yul\":2219:2337   */\n    tag_116:\n        /* \"#utility.yul\":2306:2330   */\n      tag_161\n        /* \"#utility.yul\":2324:2329   */\n      dup2\n        /* \"#utility.yul\":2306:2330   */\n      tag_109\n      jump\t// in\n    tag_161:\n        /* \"#utility.yul\":2301:2304   */\n      dup3\n        /* \"#utility.yul\":2294:2331   */\n      mstore\n        /* \"#utility.yul\":2219:2337   */\n      pop\n      pop\n      jump\t// out\n        /* \"#utility.yul\":2343:2565   */\n    tag_23:\n        /* \"#utility.yul\":2436:2440   */\n      0x00\n        /* \"#utility.yul\":2474:2476   */\n      0x20\n        /* \"#utility.yul\":2463:2472   */\n      dup3\n        /* \"#utility.yul\":2459:2477   */\n      add\n        /* \"#utility.yul\":2451:2477   */\n      swap1\n      pop\n        /* \"#utility.yul\":2487:2558   */\n      tag_163\n        /* \"#utility.yul\":2555:2556   */\n      0x00\n        /* \"#utility.yul\":2544:2553   */\n      dup4\n        /* \"#utility.yul\":2540:2557   */\n      add\n        /* \"#utility.yul\":2531:2537   */\n      dup5\n        /* \"#utility.yul\":2487:2558   */\n      tag_116\n      jump\t// in\n    tag_163:\n        /* \"#utility.yul\":2343:2565   */\n      swap3\n      swap2\n      pop\n      pop\n      jump\t// out\n        /* \"#utility.yul\":2571:2740   */\n    tag_117:\n        /* \"#utility.yul\":2655:2666   */\n      0x00\n        /* \"#utility.yul\":2689:2695   */\n      dup3\n        /* \"#utility.yul\":2684:2687   */\n      dup3\n        /* \"#utility.yul\":2677:2696   */\n      mstore\n        /* \"#utility.yul\":2729:2733   */\n      0x20\n        /* \"#utility.yul\":2724:2727   */\n      dup3\n        /* \"#utility.yul\":2720:2734   */\n      add\n        /* \"#utility.yul\":2705:2734   */\n      swap1\n      pop\n        /* \"#utility.yul\":2571:2740   */\n      swap3\n      swap2\n      pop\n      pop\n      jump\t// out\n        /* \"#utility.yul\":2746:2919   */\n    tag_118:\n        /* \"#utility.yul\":2886:2911   */\n      0x4f6e6c792061646d696e2063616e207769746864726177000000000000000000\n        /* \"#utility.yul\":2882:2883   */\n      0x00\n        /* \"#utility.yul\":2874:2880   */\n      dup3\n        /* \"#utility.yul\":2870:2884   */\n      add\n        /* \"#utility.yul\":2863:2912   */\n      mstore\n        /* \"#utility.yul\":2746:2919   */\n      pop\n      jump\t// out\n        /* \"#utility.yul\":2925:3291   */\n    tag_119:\n        /* \"#utility.yul\":3067:3070   */\n      0x00\n        /* \"#utility.yul\":3088:3155   */\n      tag_167\n        /* \"#utility.yul\":3152:3154   */\n      0x17\n        /* \"#utility.yul\":3147:3150   */\n      dup4\n        /* \"#utility.yul\":3088:3155   */\n      tag_117\n      jump\t// in\n    tag_167:\n        /* \"#utility.yul\":3081:3155   */\n      swap2\n      pop\n        /* \"#utility.yul\":3164:3257   */\n      tag_168\n        /* \"#utility.yul\":3253:3256   */\n      dup3\n        /* \"#utility.yul\":3164:3257   */\n      tag_118\n      jump\t// in\n    tag_168:\n        /* \"#utility.yul\":3282:3284   */\n      0x20\n        /* \"#utility.yul\":3277:3280   */\n      dup3\n        /* \"#utility.yul\":3273:3285   */\n      add\n        /* \"#utility.yul\":3266:3285   */\n      swap1\n      pop\n        /* \"#utility.yul\":2925:3291   */\n      swap2\n      swap1\n      pop\n      jump\t// out\n        /* \"#utility.yul\":3297:3716   */\n    tag_33:\n        /* \"#utility.yul\":3463:3467   */\n      0x00\n        /* \"#utility.yul\":3501:3503   */\n      0x20\n        /* \"#utility.yul\":3490:3499   */\n      dup3\n        /* \"#utility.yul\":3486:3504   */\n      add\n        /* \"#utility.yul\":3478:3504   */\n      swap1\n      pop\n        /* \"#utility.yul\":3550:3559   */\n      dup2\n        /* \"#utility.yul\":3544:3548   */\n      dup2\n        /* \"#utility.yul\":3540:3560   */\n      sub\n        /* \"#utility.yul\":3536:3537   */\n      0x00\n        /* \"#utility.yul\":3525:3534   */\n      dup4\n        /* \"#utility.yul\":3521:3538   */\n      add\n        /* \"#utility.yul\":3514:3561   */\n      mstore\n        /* \"#utility.yul\":3578:3709   */\n      tag_170\n        /* \"#utility.yul\":3704:3708   */\n      dup2\n        /* \"#utility.yul\":3578:3709   */\n      tag_119\n      jump\t// in\n    tag_170:\n        /* \"#utility.yul\":3570:3709   */\n      swap1\n      pop\n        /* \"#utility.yul\":3297:3716   */\n      swap2\n      swap1\n      pop\n      jump\t// out\n        /* \"#utility.yul\":3722:3890   */\n    tag_120:\n        /* \"#utility.yul\":3862:3882   */\n      0x4e6f2045544820746f2077697468647261770000000000000000000000000000\n        /* \"#utility.yul\":3858:3859   */\n      0x00\n        /* \"#utility.yul\":3850:3856   */\n      dup3\n        /* \"#utility.yul\":3846:3860   */\n      add\n        /* \"#utility.yul\":3839:3883   */\n      mstore\n        /* \"#utility.yul\":3722:3890   */\n      pop\n      jump\t// out\n        /* \"#utility.yul\":3896:4262   */\n    tag_121:\n        /* \"#utility.yul\":4038:4041   */\n      0x00\n        /* \"#utility.yul\":4059:4126   */\n      tag_173\n        /* \"#utility.yul\":4123:4125   */\n      0x12\n        /* \"#utility.yul\":4118:4121   */\n      dup4\n        /* \"#utility.yul\":4059:4126   */\n      tag_117\n      jump\t// in\n    tag_173:\n        /* \"#utility.yul\":4052:4126   */\n      swap2\n      pop\n        /* \"#utility.yul\":4135:4228   */\n      tag_174\n        /* \"#utility.yul\":4224:4227   */\n      dup3\n        /* \"#utility.yul\":4135:4228   */\n      tag_120\n      jump\t// in\n    tag_174:\n        /* \"#utility.yul\":4253:4255   */\n      0x20\n        /* \"#utility.yul\":4248:4251   */\n      dup3\n        /* \"#utility.yul\":4244:4256   */\n      add\n        /* \"#utility.yul\":4237:4256   */\n      swap1\n      pop\n        /* \"#utility.yul\":3896:4262   */\n      swap2\n      swap1\n      pop\n      jump\t// out\n        /* \"#utility.yul\":4268:4687   */\n    tag_36:\n        /* \"#utility.yul\":4434:4438   */\n      0x00\n        /* \"#utility.yul\":4472:4474   */\n      0x20\n        /* \"#utility.yul\":4461:4470   */\n      dup3\n        /* \"#utility.yul\":4457:4475   */\n      add\n        /* \"#utility.yul\":4449:4475   */\n      swap1\n      pop\n        /* \"#utility.yul\":4521:4530   */\n      dup2\n        /* \"#utility.yul\":4515:4519   */\n      dup2\n        /* \"#utility.yul\":4511:4531   */\n      sub\n        /* \"#utility.yul\":4507:4508   */\n      0x00\n        /* \"#utility.yul\":4496:4505   */\n      dup4\n        /* \"#utility.yul\":4492:4509   */\n      add\n        /* \"#utility.yul\":4485:4532   */\n      mstore\n        /* \"#utility.yul\":4549:4680   */\n      tag_176\n        /* \"#utility.yul\":4675:4679   */\n      dup2\n        /* \"#utility.yul\":4549:4680   */\n      tag_121\n      jump\t// in\n    tag_176:\n        /* \"#utility.yul\":4541:4680   */\n      swap1\n      pop\n        /* \"#utility.yul\":4268:4687   */\n      swap2\n      swap1\n      pop\n      jump\t// out\n        /* \"#utility.yul\":4693:4840   */\n    tag_122:\n        /* \"#utility.yul\":4794:4805   */\n      0x00\n        /* \"#utility.yul\":4831:4834   */\n      dup2\n        /* \"#utility.yul\":4816:4834   */\n      swap1\n      pop\n        /* \"#utility.yul\":4693:4840   */\n      swap3\n      swap2\n      pop\n      pop\n      jump\t// out\n        /* \"#utility.yul\":4846:4960   */\n    tag_123:\n      pop\n      jump\t// out\n        /* \"#utility.yul\":4966:5364   */\n    tag_124:\n        /* \"#utility.yul\":5125:5128   */\n      0x00\n        /* \"#utility.yul\":5146:5229   */\n      tag_180\n        /* \"#utility.yul\":5227:5228   */\n      0x00\n        /* \"#utility.yul\":5222:5225   */\n      dup4\n        /* \"#utility.yul\":5146:5229   */\n      tag_122\n      jump\t// in\n    tag_180:\n        /* \"#utility.yul\":5139:5229   */\n      swap2\n      pop\n        /* \"#utility.yul\":5238:5331   */\n      tag_181\n        /* \"#utility.yul\":5327:5330   */\n      dup3\n        /* \"#utility.yul\":5238:5331   */\n      tag_123\n      jump\t// in\n    tag_181:\n        /* \"#utility.yul\":5356:5357   */\n      0x00\n        /* \"#utility.yul\":5351:5354   */\n      dup3\n        /* \"#utility.yul\":5347:5358   */\n      add\n        /* \"#utility.yul\":5340:5358   */\n      swap1\n      pop\n        /* \"#utility.yul\":4966:5364   */\n      swap2\n      swap1\n      pop\n      jump\t// out\n        /* \"#utility.yul\":5370:5749   */\n    tag_38:\n        /* \"#utility.yul\":5554:5557   */\n      0x00\n        /* \"#utility.yul\":5576:5723   */\n      tag_183\n        /* \"#utility.yul\":5719:5722   */\n      dup3\n        /* \"#utility.yul\":5576:5723   */\n      tag_124\n      jump\t// in\n    tag_183:\n        /* \"#utility.yul\":5569:5723   */\n      swap2\n      pop\n        /* \"#utility.yul\":5740:5743   */\n      dup2\n        /* \"#utility.yul\":5733:5743   */\n      swap1\n      pop\n        /* \"#utility.yul\":5370:5749   */\n      swap2\n      swap1\n      pop\n      jump\t// out\n        /* \"#utility.yul\":5755:5924   */\n    tag_125:\n        /* \"#utility.yul\":5895:5916   */\n      0x455448205472616e73666572204661696c656400000000000000000000000000\n        /* \"#utility.yul\":5891:5892   */\n      0x00\n        /* \"#utility.yul\":5883:5889   */\n      dup3\n        /* \"#utility.yul\":5879:5893   */\n      add\n        /* \"#utility.yul\":5872:5917   */\n      mstore\n        /* \"#utility.yul\":5755:5924   */\n      pop\n      jump\t// out\n        /* \"#utility.yul\":5930:6296   */\n    tag_126:\n        /* \"#utility.yul\":6072:6075   */\n      0x00\n        /* \"#utility.yul\":6093:6160   */\n      tag_186\n        /* \"#utility.yul\":6157:6159   */\n      0x13\n        /* \"#utility.yul\":6152:6155   */\n      dup4\n        /* \"#utility.yul\":6093:6160   */\n      tag_117\n      jump\t// in\n    tag_186:\n        /* \"#utility.yul\":6086:6160   */\n      swap2\n      pop\n        /* \"#utility.yul\":6169:6262   */\n      tag_187\n        /* \"#utility.yul\":6258:6261   */\n      dup3\n        /* \"#utility.yul\":6169:6262   */\n      tag_125\n      jump\t// in\n    tag_187:\n        /* \"#utility.yul\":6287:6289   */\n      0x20\n        /* \"#utility.yul\":6282:6285   */\n      dup3\n        /* \"#utility.yul\":6278:6290   */\n      add\n        /* \"#utility.yul\":6271:6290   */\n      swap1\n      pop\n        /* \"#utility.yul\":5930:6296   */\n      swap2\n      swap1\n      pop\n      jump\t// out\n        /* \"#utility.yul\":6302:6721   */\n    tag_44:\n        /* \"#utility.yul\":6468:6472   */\n      0x00\n        /* \"#utility.yul\":6506:6508   */\n      0x20\n        /* \"#utility.yul\":6495:6504   */\n      dup3\n        /* \"#utility.yul\":6491:6509   */\n      add\n        /* \"#utility.yul\":6483:6509   */\n      swap1\n      pop\n        /* \"#utility.yul\":6555:6564   */\n      dup2\n        /* \"#utility.yul\":6549:6553   */\n      dup2\n        /* \"#utility.yul\":6545:6565   */\n      sub\n        /* \"#utility.yul\":6541:6542   */\n      0x00\n        /* \"#utility.yul\":6530:6539   */\n      dup4\n        /* \"#utility.yul\":6526:6543   */\n      add\n        /* \"#utility.yul\":6519:6566   */\n      mstore\n        /* \"#utility.yul\":6583:6714   */\n      tag_189\n        /* \"#utility.yul\":6709:6713   */\n      dup2\n        /* \"#utility.yul\":6583:6714   */\n      tag_126\n      jump\t// in\n    tag_189:\n        /* \"#utility.yul\":6575:6714   */\n      swap1\n      pop\n        /* \"#utility.yul\":6302:6721   */\n      swap2\n      swap1\n      pop\n      jump\t// out\n        /* \"#utility.yul\":6727:6951   */\n    tag_127:\n        /* \"#utility.yul\":6867:6901   */\n      0x4465706f73697420616d6f756e74206d75737420626520677265617465722074\n        /* \"#utility.yul\":6863:6864   */\n      0x00\n        /* \"#utility.yul\":6855:6861   */\n      dup3\n        /* \"#utility.yul\":6851:6865   */\n      add\n        /* \"#utility.yul\":6844:6902   */\n      mstore\n        /* \"#utility.yul\":6936:6943   */\n      0x68616e2030000000000000000000000000000000000000000000000000000000\n        /* \"#utility.yul\":6931:6933   */\n      0x20\n        /* \"#utility.yul\":6923:6929   */\n      dup3\n        /* \"#utility.yul\":6919:6934   */\n      add\n        /* \"#utility.yul\":6912:6944   */\n      mstore\n        /* \"#utility.yul\":6727:6951   */\n      pop\n      jump\t// out\n        /* \"#utility.yul\":6957:7323   */\n    tag_128:\n        /* \"#utility.yul\":7099:7102   */\n      0x00\n        /* \"#utility.yul\":7120:7187   */\n      tag_192\n        /* \"#utility.yul\":7184:7186   */\n      0x25\n        /* \"#utility.yul\":7179:7182   */\n      dup4\n        /* \"#utility.yul\":7120:7187   */\n      tag_117\n      jump\t// in\n    tag_192:\n        /* \"#utility.yul\":7113:7187   */\n      swap2\n      pop\n        /* \"#utility.yul\":7196:7289   */\n      tag_193\n        /* \"#utility.yul\":7285:7288   */\n      dup3\n        /* \"#utility.yul\":7196:7289   */\n      tag_127\n      jump\t// in\n    tag_193:\n        /* \"#utility.yul\":7314:7316   */\n      0x40\n        /* \"#utility.yul\":7309:7312   */\n      dup3\n        /* \"#utility.yul\":7305:7317   */\n      add\n        /* \"#utility.yul\":7298:7317   */\n      swap1\n      pop\n        /* \"#utility.yul\":6957:7323   */\n      swap2\n      swap1\n      pop\n      jump\t// out\n        /* \"#utility.yul\":7329:7748   */\n    tag_50:\n        /* \"#utility.yul\":7495:7499   */\n      0x00\n        /* \"#utility.yul\":7533:7535   */\n      0x20\n        /* \"#utility.yul\":7522:7531   */\n      dup3\n        /* \"#utility.yul\":7518:7536   */\n      add\n        /* \"#utility.yul\":7510:7536   */\n      swap1\n      pop\n        /* \"#utility.yul\":7582:7591   */\n      dup2\n        /* \"#utility.yul\":7576:7580   */\n      dup2\n        /* \"#utility.yul\":7572:7592   */\n      sub\n        /* \"#utility.yul\":7568:7569   */\n      0x00\n        /* \"#utility.yul\":7557:7566   */\n      dup4\n        /* \"#utility.yul\":7553:7570   */\n      add\n        /* \"#utility.yul\":7546:7593   */\n      mstore\n        /* \"#utility.yul\":7610:7741   */\n      tag_195\n        /* \"#utility.yul\":7736:7740   */\n      dup2\n        /* \"#utility.yul\":7610:7741   */\n      tag_128\n      jump\t// in\n    tag_195:\n        /* \"#utility.yul\":7602:7741   */\n      swap1\n      pop\n        /* \"#utility.yul\":7329:7748   */\n      swap2\n      swap1\n      pop\n      jump\t// out\n        /* \"#utility.yul\":7754:7934   */\n    tag_129:\n        /* \"#utility.yul\":7802:7879   */\n      0x4e487b7100000000000000000000000000000000000000000000000000000000\n        /* \"#utility.yul\":7799:7800   */\n      0x00\n        /* \"#utility.yul\":7792:7880   */\n      mstore\n        /* \"#utility.yul\":7899:7903   */\n      0x11\n        /* \"#utility.yul\":7896:7897   */\n      0x04\n        /* \"#utility.yul\":7889:7904   */\n      mstore\n        /* \"#utility.yul\":7923:7927   */\n      0x24\n        /* \"#utility.yul\":7920:7921   */\n      0x00\n        /* \"#utility.yul\":7913:7928   */\n      revert\n        /* \"#utility.yul\":7940:8131   */\n    tag_52:\n        /* \"#utility.yul\":7980:7983   */\n      0x00\n        /* \"#utility.yul\":7999:8019   */\n      tag_198\n        /* \"#utility.yul\":8017:8018   */\n      dup3\n        /* \"#utility.yul\":7999:8019   */\n      tag_112\n      jump\t// in\n    tag_198:\n        /* \"#utility.yul\":7994:8019   */\n      swap2\n      pop\n        /* \"#utility.yul\":8033:8053   */\n      tag_199\n        /* \"#utility.yul\":8051:8052   */\n      dup4\n        /* \"#utility.yul\":8033:8053   */\n      tag_112\n      jump\t// in\n    tag_199:\n        /* \"#utility.yul\":8028:8053   */\n      swap3\n      pop\n        /* \"#utility.yul\":8076:8077   */\n      dup3\n        /* \"#utility.yul\":8073:8074   */\n      dup3\n        /* \"#utility.yul\":8069:8078   */\n      add\n        /* \"#utility.yul\":8062:8078   */\n      swap1\n      pop\n        /* \"#utility.yul\":8097:8100   */\n      dup1\n        /* \"#utility.yul\":8094:8095   */\n      dup3\n        /* \"#utility.yul\":8091:8101   */\n      gt\n        /* \"#utility.yul\":8088:8124   */\n      iszero\n      tag_200\n      jumpi\n        /* \"#utility.yul\":8104:8122   */\n      tag_201\n      tag_129\n      jump\t// in\n    tag_201:\n        /* \"#utility.yul\":8088:8124   */\n    tag_200:\n        /* \"#utility.yul\":7940:8131   */\n      swap3\n      swap2\n      pop\n      pop\n      jump\t// out\n        /* \"#utility.yul\":8137:8317   */\n    tag_61:\n        /* \"#utility.yul\":8185:8262   */\n      0x4e487b7100000000000000000000000000000000000000000000000000000000\n        /* \"#utility.yul\":8182:8183   */\n      0x00\n        /* \"#utility.yul\":8175:8263   */\n      mstore\n        /* \"#utility.yul\":8282:8286   */\n      0x32\n        /* \"#utility.yul\":8279:8280   */\n      0x04\n        /* \"#utility.yul\":8272:8287   */\n      mstore\n        /* \"#utility.yul\":8306:8310   */\n      0x24\n        /* \"#utility.yul\":8303:8304   */\n      0x00\n        /* \"#utility.yul\":8296:8311   */\n      revert\n        /* \"#utility.yul\":8323:8517   */\n    tag_82:\n        /* \"#utility.yul\":8363:8367   */\n      0x00\n        /* \"#utility.yul\":8383:8403   */\n      tag_204\n        /* \"#utility.yul\":8401:8402   */\n      dup3\n        /* \"#utility.yul\":8383:8403   */\n      tag_112\n      jump\t// in\n    tag_204:\n        /* \"#utility.yul\":8378:8403   */\n      swap2\n      pop\n        /* \"#utility.yul\":8417:8437   */\n      tag_205\n        /* \"#utility.yul\":8435:8436   */\n      dup4\n        /* \"#utility.yul\":8417:8437   */\n      tag_112\n      jump\t// in\n    tag_205:\n        /* \"#utility.yul\":8412:8437   */\n      swap3\n      pop\n        /* \"#utility.yul\":8461:8462   */\n      dup3\n        /* \"#utility.yul\":8458:8459   */\n      dup3\n        /* \"#utility.yul\":8454:8463   */\n      sub\n        /* \"#utility.yul\":8446:8463   */\n      swap1\n      pop\n        /* \"#utility.yul\":8485:8486   */\n      dup2\n        /* \"#utility.yul\":8479:8483   */\n      dup2\n        /* \"#utility.yul\":8476:8487   */\n      gt\n        /* \"#utility.yul\":8473:8510   */\n      iszero\n      tag_206\n      jumpi\n        /* \"#utility.yul\":8490:8508   */\n      tag_207\n      tag_129\n      jump\t// in\n    tag_207:\n        /* \"#utility.yul\":8473:8510   */\n    tag_206:\n        /* \"#utility.yul\":8323:8517   */\n      swap3\n      swap2\n      pop\n      pop\n      jump\t// out\n\n    auxdata: 0xa2646970667358221220e870a0a7880fe767afc724cacdcc0c66b686c32e553153be73bd46ca55f7a1ec64736f6c634300081f0033\n}\n",
				"bytecode": {
					"linkReferences": {},
					"object": "6080604052348015600e575f5ffd5b50335f5f6101000a81548173ffffffffffffffffffffffffffffffffffffffff021916908373ffffffffffffffffffffffffffffffffffffffff160217905550610c0e8061005b5f395ff3fe608060405260043610610049575f3560e01c806327e235e31461004d5780633ccfd60b1461008957806342e6fe581461009f578063d0e30db0146100db578063f851a440146100e5575b5f5ffd5b348015610058575f5ffd5b50610073600480360381019061006e9190610828565b61010f565b604051610080919061086b565b60405180910390f35b348015610094575f5ffd5b5061009d610124565b005b3480156100aa575f5ffd5b506100c560048036038101906100c091906108ae565b6102c4565b6040516100d291906108e8565b60405180910390f35b6100e36102f8565b005b3480156100f0575f5ffd5b506100f9610398565b60405161010691906108e8565b60405180910390f35b6001602052805f5260405f205f915090505481565b5f5f9054906101000a900473ffffffffffffffffffffffffffffffffffffffff1673ffffffffffffffffffffffffffffffffffffffff163373ffffffffffffffffffffffffffffffffffffffff16146101b2576040517f08c379a00000000000000000000000000000000000000000000000000000000081526004016101a99061095b565b60405180910390fd5b5f4790505f81116101f8576040517f08c379a00000000000000000000000000000000000000000000000000000000081526004016101ef906109c3565b60405180910390fd5b5f5f5f9054906101000a900473ffffffffffffffffffffffffffffffffffffffff1673ffffffffffffffffffffffffffffffffffffffff168260405161023d90610a0e565b5f6040518083038185875af1925050503d805f8114610277576040519150601f19603f3d011682016040523d82523d5f602084013e61027c565b606091505b50509050806102c0576040517f08c379a00000000000000000000000000000000000000000000000000000000081526004016102b790610a6c565b60405180910390fd5b5050565b600281600381106102d3575f80fd5b015f915054906101000a900473ffffffffffffffffffffffffffffffffffffffff1681565b5f341161033a576040517f08c379a000000000000000000000000000000000000000000000000000000000815260040161033190610afa565b60405180910390fd5b3460015f3373ffffffffffffffffffffffffffffffffffffffff1673ffffffffffffffffffffffffffffffffffffffff1681526020019081526020015f205f8282546103869190610b45565b92505081905550610396336103bc565b565b5f5f9054906101000a900473ffffffffffffffffffffffffffffffffffffffff1681565b5f5f90505b600381101561044c57600281600381106103de576103dd610b78565b5b015f9054906101000a900473ffffffffffffffffffffffffffffffffffffffff1673ffffffffffffffffffffffffffffffffffffffff168273ffffffffffffffffffffffffffffffffffffffff160361043f57610439610563565b50610560565b80806001019150506103c1565b5060015f6002806003811061046457610463610b78565b5b015f9054906101000a900473ffffffffffffffffffffffffffffffffffffffff1673ffffffffffffffffffffffffffffffffffffffff1673ffffffffffffffffffffffffffffffffffffffff1681526020019081526020015f205460015f8373ffffffffffffffffffffffffffffffffffffffff1673ffffffffffffffffffffffffffffffffffffffff1681526020019081526020015f2054111561055f57806002806003811061051857610517610b78565b5b015f6101000a81548173ffffffffffffffffffffffffffffffffffffffff021916908373ffffffffffffffffffffffffffffffffffffffff16021790555061055e610563565b5b5b50565b5f5f90505b60028110156107c7575f5f90505b8160026105839190610ba5565b8110156107b95760015f600260018461059c9190610b45565b600381106105ad576105ac610b78565b5b015f9054906101000a900473ffffffffffffffffffffffffffffffffffffffff1673ffffffffffffffffffffffffffffffffffffffff1673ffffffffffffffffffffffffffffffffffffffff1681526020019081526020015f205460015f6002846003811061061f5761061e610b78565b5b015f9054906101000a900473ffffffffffffffffffffffffffffffffffffffff1673ffffffffffffffffffffffffffffffffffffffff1673ffffffffffffffffffffffffffffffffffffffff1681526020019081526020015f205410156107ac575f6002826003811061069557610694610b78565b5b015f9054906101000a900473ffffffffffffffffffffffffffffffffffffffff16905060026001836106c79190610b45565b600381106106d8576106d7610b78565b5b015f9054906101000a900473ffffffffffffffffffffffffffffffffffffffff166002836003811061070d5761070c610b78565b5b015f6101000a81548173ffffffffffffffffffffffffffffffffffffffff021916908373ffffffffffffffffffffffffffffffffffffffff16021790555080600260018461075b9190610b45565b6003811061076c5761076b610b78565b5b015f6101000a81548173ffffffffffffffffffffffffffffffffffffffff021916908373ffffffffffffffffffffffffffffffffffffffff160217905550505b8080600101915050610576565b508080600101915050610568565b50565b5f5ffd5b5f73ffffffffffffffffffffffffffffffffffffffff82169050919050565b5f6107f7826107ce565b9050919050565b610807816107ed565b8114610811575f5ffd5b50565b5f81359050610822816107fe565b92915050565b5f6020828403121561083d5761083c6107ca565b5b5f61084a84828501610814565b91505092915050565b5f819050919050565b61086581610853565b82525050565b5f60208201905061087e5f83018461085c565b92915050565b61088d81610853565b8114610897575f5ffd5b50565b5f813590506108a881610884565b92915050565b5f602082840312156108c3576108c26107ca565b5b5f6108d08482850161089a565b91505092915050565b6108e2816107ed565b82525050565b5f6020820190506108fb5f8301846108d9565b92915050565b5f82825260208201905092915050565b7f4f6e6c792061646d696e2063616e2077697468647261770000000000000000005f82015250565b5f610945601783610901565b915061095082610911565b602082019050919050565b5f6020820190508181035f83015261097281610939565b9050919050565b7f4e6f2045544820746f20776974686472617700000000000000000000000000005f82015250565b5f6109ad601283610901565b91506109b882610979565b602082019050919050565b5f6020820190508181035f8301526109da816109a1565b9050919050565b5f81905092915050565b50565b5f6109f95f836109e1565b9150610a04826109eb565b5f82019050919050565b5f610a18826109ee565b9150819050919050565b7f455448205472616e73666572204661696c6564000000000000000000000000005f82015250565b5f610a56601383610901565b9150610a6182610a22565b602082019050919050565b5f6020820190508181035f830152610a8381610a4a565b9050919050565b7f4465706f73697420616d6f756e74206d757374206265206772656174657220745f8201527f68616e2030000000000000000000000000000000000000000000000000000000602082015250565b5f610ae4602583610901565b9150610aef82610a8a565b604082019050919050565b5f6020820190508181035f830152610b1181610ad8565b9050919050565b7f4e487b71000000000000000000000000000000000000000000000000000000005f52601160045260245ffd5b5f610b4f82610853565b9150610b5a83610853565b9250828201905080821115610b7257610b71610b18565b5b92915050565b7f4e487b71000000000000000000000000000000000000000000000000000000005f52603260045260245ffd5b5f610baf82610853565b9150610bba83610853565b9250828203905081811115610bd257610bd1610b18565b5b9291505056fea2646970667358221220e870a0a7880fe767afc724cacdcc0c66b686c32e553153be73bd46ca55f7a1ec64736f6c634300081f0033",
					"opcodes": "PUSH1 0x80 PUSH1 0x40 MSTORE CALLVALUE DUP1 ISZERO PUSH1 0xE JUMPI PUSH0 PUSH0 REVERT JUMPDEST POP CALLER PUSH0 PUSH0 PUSH2 0x100 EXP DUP2 SLOAD DUP2 PUSH20 0xFFFFFFFFFFFFFFFFFFFFFFFFFFFFFFFFFFFFFFFF MUL NOT AND SWAP1 DUP4 PUSH20 0xFFFFFFFFFFFFFFFFFFFFFFFFFFFFFFFFFFFFFFFF AND MUL OR SWAP1 SSTORE POP PUSH2 0xC0E DUP1 PUSH2 0x5B PUSH0 CODECOPY PUSH0 RETURN INVALID PUSH1 0x80 PUSH1 0x40 MSTORE PUSH1 0x4 CALLDATASIZE LT PUSH2 0x49 JUMPI PUSH0 CALLDATALOAD PUSH1 0xE0 SHR DUP1 PUSH4 0x27E235E3 EQ PUSH2 0x4D JUMPI DUP1 PUSH4 0x3CCFD60B EQ PUSH2 0x89 JUMPI DUP1 PUSH4 0x42E6FE58 EQ PUSH2 0x9F JUMPI DUP1 PUSH4 0xD0E30DB0 EQ PUSH2 0xDB JUMPI DUP1 PUSH4 0xF851A440 EQ PUSH2 0xE5 JUMPI JUMPDEST PUSH0 PUSH0 REVERT JUMPDEST CALLVALUE DUP1 ISZERO PUSH2 0x58 JUMPI PUSH0 PUSH0 REVERT JUMPDEST POP PUSH2 0x73 PUSH1 0x4 DUP1 CALLDATASIZE SUB DUP2 ADD SWAP1 PUSH2 0x6E SWAP2 SWAP1 PUSH2 0x828 JUMP JUMPDEST PUSH2 0x10F JUMP JUMPDEST PUSH1 0x40 MLOAD PUSH2 0x80 SWAP2 SWAP1 PUSH2 0x86B JUMP JUMPDEST PUSH1 0x40 MLOAD DUP1 SWAP2 SUB SWAP1 RETURN JUMPDEST CALLVALUE DUP1 ISZERO PUSH2 0x94 JUMPI PUSH0 PUSH0 REVERT JUMPDEST POP PUSH2 0x9D PUSH2 0x124 JUMP JUMPDEST STOP JUMPDEST CALLVALUE DUP1 ISZERO PUSH2 0xAA JUMPI PUSH0 PUSH0 REVERT JUMPDEST POP PUSH2 0xC5 PUSH1 0x4 DUP1 CALLDATASIZE SUB DUP2 ADD SWAP1 PUSH2 0xC0 SWAP2 SWAP1 PUSH2 0x8AE JUMP JUMPDEST PUSH2 0x2C4 JUMP JUMPDEST PUSH1 0x40 MLOAD PUSH2 0xD2 SWAP2 SWAP1 PUSH2 0x8E8 JUMP JUMPDEST PUSH1 0x40 MLOAD DUP1 SWAP2 SUB SWAP1 RETURN JUMPDEST PUSH2 0xE3 PUSH2 0x2F8 JUMP JUMPDEST STOP JUMPDEST CALLVALUE DUP1 ISZERO PUSH2 0xF0 JUMPI PUSH0 PUSH0 REVERT JUMPDEST POP PUSH2 0xF9 PUSH2 0x398 JUMP JUMPDEST PUSH1 0x40 MLOAD PUSH2 0x106 SWAP2 SWAP1 PUSH2 0x8E8 JUMP JUMPDEST PUSH1 0x40 MLOAD DUP1 SWAP2 SUB SWAP1 RETURN JUMPDEST PUSH1 0x1 PUSH1 0x20 MSTORE DUP1 PUSH0 MSTORE PUSH1 0x40 PUSH0 KECCAK256 PUSH0 SWAP2 POP SWAP1 POP SLOAD DUP2 JUMP JUMPDEST PUSH0 PUSH0 SWAP1 SLOAD SWAP1 PUSH2 0x100 EXP SWAP1 DIV PUSH20 0xFFFFFFFFFFFFFFFFFFFFFFFFFFFFFFFFFFFFFFFF AND PUSH20 0xFFFFFFFFFFFFFFFFFFFFFFFFFFFFFFFFFFFFFFFF AND CALLER PUSH20 0xFFFFFFFFFFFFFFFFFFFFFFFFFFFFFFFFFFFFFFFF AND EQ PUSH2 0x1B2 JUMPI PUSH1 0x40 MLOAD PUSH32 0x8C379A000000000000000000000000000000000000000000000000000000000 DUP2 MSTORE PUSH1 0x4 ADD PUSH2 0x1A9 SWAP1 PUSH2 0x95B JUMP JUMPDEST PUSH1 0x40 MLOAD DUP1 SWAP2 SUB SWAP1 REVERT JUMPDEST PUSH0 SELFBALANCE SWAP1 POP PUSH0 DUP2 GT PUSH2 0x1F8 JUMPI PUSH1 0x40 MLOAD PUSH32 0x8C379A000000000000000000000000000000000000000000000000000000000 DUP2 MSTORE PUSH1 0x4 ADD PUSH2 0x1EF SWAP1 PUSH2 0x9C3 JUMP JUMPDEST PUSH1 0x40 MLOAD DUP1 SWAP2 SUB SWAP1 REVERT JUMPDEST PUSH0 PUSH0 PUSH0 SWAP1 SLOAD SWAP1 PUSH2 0x100 EXP SWAP1 DIV PUSH20 0xFFFFFFFFFFFFFFFFFFFFFFFFFFFFFFFFFFFFFFFF AND PUSH20 0xFFFFFFFFFFFFFFFFFFFFFFFFFFFFFFFFFFFFFFFF AND DUP3 PUSH1 0x40 MLOAD PUSH2 0x23D SWAP1 PUSH2 0xA0E JUMP JUMPDEST PUSH0 PUSH1 0x40 MLOAD DUP1 DUP4 SUB DUP2 DUP6 DUP8 GAS CALL SWAP3 POP POP POP RETURNDATASIZE DUP1 PUSH0 DUP2 EQ PUSH2 0x277 JUMPI PUSH1 0x40 MLOAD SWAP2 POP PUSH1 0x1F NOT PUSH1 0x3F RETURNDATASIZE ADD AND DUP3 ADD PUSH1 0x40 MSTORE RETURNDATASIZE DUP3 MSTORE RETURNDATASIZE PUSH0 PUSH1 0x20 DUP5 ADD RETURNDATACOPY PUSH2 0x27C JUMP JUMPDEST PUSH1 0x60 SWAP2 POP JUMPDEST POP POP SWAP1 POP DUP1 PUSH2 0x2C0 JUMPI PUSH1 0x40 MLOAD PUSH32 0x8C379A000000000000000000000000000000000000000000000000000000000 DUP2 MSTORE PUSH1 0x4 ADD PUSH2 0x2B7 SWAP1 PUSH2 0xA6C JUMP JUMPDEST PUSH1 0x40 MLOAD DUP1 SWAP2 SUB SWAP1 REVERT JUMPDEST POP POP JUMP JUMPDEST PUSH1 0x2 DUP2 PUSH1 0x3 DUP2 LT PUSH2 0x2D3 JUMPI PUSH0 DUP1 REVERT JUMPDEST ADD PUSH0 SWAP2 POP SLOAD SWAP1 PUSH2 0x100 EXP SWAP1 DIV PUSH20 0xFFFFFFFFFFFFFFFFFFFFFFFFFFFFFFFFFFFFFFFF AND DUP2 JUMP JUMPDEST PUSH0 CALLVALUE GT PUSH2 0x33A JUMPI PUSH1 0x40 MLOAD PUSH32 0x8C379A000000000000000000000000000000000000000000000000000000000 DUP2 MSTORE PUSH1 0x4 ADD PUSH2 0x331 SWAP1 PUSH2 0xAFA JUMP JUMPDEST PUSH1 0x40 MLOAD DUP1 SWAP2 SUB SWAP1 REVERT JUMPDEST CALLVALUE PUSH1 0x1 PUSH0 CALLER PUSH20 0xFFFFFFFFFFFFFFFFFFFFFFFFFFFFFFFFFFFFFFFF AND PUSH20 0xFFFFFFFFFFFFFFFFFFFFFFFFFFFFFFFFFFFFFFFF AND DUP2 MSTORE PUSH1 0x20 ADD SWAP1 DUP2 MSTORE PUSH1 0x20 ADD PUSH0 KECCAK256 PUSH0 DUP3 DUP3 SLOAD PUSH2 0x386 SWAP2 SWAP1 PUSH2 0xB45 JUMP JUMPDEST SWAP3 POP POP DUP2 SWAP1 SSTORE POP PUSH2 0x396 CALLER PUSH2 0x3BC JUMP JUMPDEST JUMP JUMPDEST PUSH0 PUSH0 SWAP1 SLOAD SWAP1 PUSH2 0x100 EXP SWAP1 DIV PUSH20 0xFFFFFFFFFFFFFFFFFFFFFFFFFFFFFFFFFFFFFFFF AND DUP2 JUMP JUMPDEST PUSH0 PUSH0 SWAP1 POP JUMPDEST PUSH1 0x3 DUP2 LT ISZERO PUSH2 0x44C JUMPI PUSH1 0x2 DUP2 PUSH1 0x3 DUP2 LT PUSH2 0x3DE JUMPI PUSH2 0x3DD PUSH2 0xB78 JUMP JUMPDEST JUMPDEST ADD PUSH0 SWAP1 SLOAD SWAP1 PUSH2 0x100 EXP SWAP1 DIV PUSH20 0xFFFFFFFFFFFFFFFFFFFFFFFFFFFFFFFFFFFFFFFF AND PUSH20 0xFFFFFFFFFFFFFFFFFFFFFFFFFFFFFFFFFFFFFFFF AND DUP3 PUSH20 0xFFFFFFFFFFFFFFFFFFFFFFFFFFFFFFFFFFFFFFFF AND SUB PUSH2 0x43F JUMPI PUSH2 0x439 PUSH2 0x563 JUMP JUMPDEST POP PUSH2 0x560 JUMP JUMPDEST DUP1 DUP1 PUSH1 0x1 ADD SWAP2 POP POP PUSH2 0x3C1 JUMP JUMPDEST POP PUSH1 0x1 PUSH0 PUSH1 0x2 DUP1 PUSH1 0x3 DUP2 LT PUSH2 0x464 JUMPI PUSH2 0x463 PUSH2 0xB78 JUMP JUMPDEST JUMPDEST ADD PUSH0 SWAP1 SLOAD SWAP1 PUSH2 0x100 EXP SWAP1 DIV PUSH20 0xFFFFFFFFFFFFFFFFFFFFFFFFFFFFFFFFFFFFFFFF AND PUSH20 0xFFFFFFFFFFFFFFFFFFFFFFFFFFFFFFFFFFFFFFFF AND PUSH20 0xFFFFFFFFFFFFFFFFFFFFFFFFFFFFFFFFFFFFFFFF AND DUP2 MSTORE PUSH1 0x20 ADD SWAP1 DUP2 MSTORE PUSH1 0x20 ADD PUSH0 KECCAK256 SLOAD PUSH1 0x1 PUSH0 DUP4 PUSH20 0xFFFFFFFFFFFFFFFFFFFFFFFFFFFFFFFFFFFFFFFF AND PUSH20 0xFFFFFFFFFFFFFFFFFFFFFFFFFFFFFFFFFFFFFFFF AND DUP2 MSTORE PUSH1 0x20 ADD SWAP1 DUP2 MSTORE PUSH1 0x20 ADD PUSH0 KECCAK256 SLOAD GT ISZERO PUSH2 0x55F JUMPI DUP1 PUSH1 0x2 DUP1 PUSH1 0x3 DUP2 LT PUSH2 0x518 JUMPI PUSH2 0x517 PUSH2 0xB78 JUMP JUMPDEST JUMPDEST ADD PUSH0 PUSH2 0x100 EXP DUP2 SLOAD DUP2 PUSH20 0xFFFFFFFFFFFFFFFFFFFFFFFFFFFFFFFFFFFFFFFF MUL NOT AND SWAP1 DUP4 PUSH20 0xFFFFFFFFFFFFFFFFFFFFFFFFFFFFFFFFFFFFFFFF AND MUL OR SWAP1 SSTORE POP PUSH2 0x55E PUSH2 0x563 JUMP JUMPDEST JUMPDEST JUMPDEST POP JUMP JUMPDEST PUSH0 PUSH0 SWAP1 POP JUMPDEST PUSH1 0x2 DUP2 LT ISZERO PUSH2 0x7C7 JUMPI PUSH0 PUSH0 SWAP1 POP JUMPDEST DUP2 PUSH1 0x2 PUSH2 0x583 SWAP2 SWAP1 PUSH2 0xBA5 JUMP JUMPDEST DUP2 LT ISZERO PUSH2 0x7B9 JUMPI PUSH1 0x1 PUSH0 PUSH1 0x2 PUSH1 0x1 DUP5 PUSH2 0x59C SWAP2 SWAP1 PUSH2 0xB45 JUMP JUMPDEST PUSH1 0x3 DUP2 LT PUSH2 0x5AD JUMPI PUSH2 0x5AC PUSH2 0xB78 JUMP JUMPDEST JUMPDEST ADD PUSH0 SWAP1 SLOAD SWAP1 PUSH2 0x100 EXP SWAP1 DIV PUSH20 0xFFFFFFFFFFFFFFFFFFFFFFFFFFFFFFFFFFFFFFFF AND PUSH20 0xFFFFFFFFFFFFFFFFFFFFFFFFFFFFFFFFFFFFFFFF AND PUSH20 0xFFFFFFFFFFFFFFFFFFFFFFFFFFFFFFFFFFFFFFFF AND DUP2 MSTORE PUSH1 0x20 ADD SWAP1 DUP2 MSTORE PUSH1 0x20 ADD PUSH0 KECCAK256 SLOAD PUSH1 0x1 PUSH0 PUSH1 0x2 DUP5 PUSH1 0x3 DUP2 LT PUSH2 0x61F JUMPI PUSH2 0x61E PUSH2 0xB78 JUMP JUMPDEST JUMPDEST ADD PUSH0 SWAP1 SLOAD SWAP1 PUSH2 0x100 EXP SWAP1 DIV PUSH20 0xFFFFFFFFFFFFFFFFFFFFFFFFFFFFFFFFFFFFFFFF AND PUSH20 0xFFFFFFFFFFFFFFFFFFFFFFFFFFFFFFFFFFFFFFFF AND PUSH20 0xFFFFFFFFFFFFFFFFFFFFFFFFFFFFFFFFFFFFFFFF AND DUP2 MSTORE PUSH1 0x20 ADD SWAP1 DUP2 MSTORE PUSH1 0x20 ADD PUSH0 KECCAK256 SLOAD LT ISZERO PUSH2 0x7AC JUMPI PUSH0 PUSH1 0x2 DUP3 PUSH1 0x3 DUP2 LT PUSH2 0x695 JUMPI PUSH2 0x694 PUSH2 0xB78 JUMP JUMPDEST JUMPDEST ADD PUSH0 SWAP1 SLOAD SWAP1 PUSH2 0x100 EXP SWAP1 DIV PUSH20 0xFFFFFFFFFFFFFFFFFFFFFFFFFFFFFFFFFFFFFFFF AND SWAP1 POP PUSH1 0x2 PUSH1 0x1 DUP4 PUSH2 0x6C7 SWAP2 SWAP1 PUSH2 0xB45 JUMP JUMPDEST PUSH1 0x3 DUP2 LT PUSH2 0x6D8 JUMPI PUSH2 0x6D7 PUSH2 0xB78 JUMP JUMPDEST JUMPDEST ADD PUSH0 SWAP1 SLOAD SWAP1 PUSH2 0x100 EXP SWAP1 DIV PUSH20 0xFFFFFFFFFFFFFFFFFFFFFFFFFFFFFFFFFFFFFFFF AND PUSH1 0x2 DUP4 PUSH1 0x3 DUP2 LT PUSH2 0x70D JUMPI PUSH2 0x70C PUSH2 0xB78 JUMP JUMPDEST JUMPDEST ADD PUSH0 PUSH2 0x100 EXP DUP2 SLOAD DUP2 PUSH20 0xFFFFFFFFFFFFFFFFFFFFFFFFFFFFFFFFFFFFFFFF MUL NOT AND SWAP1 DUP4 PUSH20 0xFFFFFFFFFFFFFFFFFFFFFFFFFFFFFFFFFFFFFFFF AND MUL OR SWAP1 SSTORE POP DUP1 PUSH1 0x2 PUSH1 0x1 DUP5 PUSH2 0x75B SWAP2 SWAP1 PUSH2 0xB45 JUMP JUMPDEST PUSH1 0x3 DUP2 LT PUSH2 0x76C JUMPI PUSH2 0x76B PUSH2 0xB78 JUMP JUMPDEST JUMPDEST ADD PUSH0 PUSH2 0x100 EXP DUP2 SLOAD DUP2 PUSH20 0xFFFFFFFFFFFFFFFFFFFFFFFFFFFFFFFFFFFFFFFF MUL NOT AND SWAP1 DUP4 PUSH20 0xFFFFFFFFFFFFFFFFFFFFFFFFFFFFFFFFFFFFFFFF AND MUL OR SWAP1 SSTORE POP POP JUMPDEST DUP1 DUP1 PUSH1 0x1 ADD SWAP2 POP POP PUSH2 0x576 JUMP JUMPDEST POP DUP1 DUP1 PUSH1 0x1 ADD SWAP2 POP POP PUSH2 0x568 JUMP JUMPDEST POP JUMP JUMPDEST PUSH0 PUSH0 REVERT JUMPDEST PUSH0 PUSH20 0xFFFFFFFFFFFFFFFFFFFFFFFFFFFFFFFFFFFFFFFF DUP3 AND SWAP1 POP SWAP2 SWAP1 POP JUMP JUMPDEST PUSH0 PUSH2 0x7F7 DUP3 PUSH2 0x7CE JUMP JUMPDEST SWAP1 POP SWAP2 SWAP1 POP JUMP JUMPDEST PUSH2 0x807 DUP2 PUSH2 0x7ED JUMP JUMPDEST DUP2 EQ PUSH2 0x811 JUMPI PUSH0 PUSH0 REVERT JUMPDEST POP JUMP JUMPDEST PUSH0 DUP2 CALLDATALOAD SWAP1 POP PUSH2 0x822 DUP2 PUSH2 0x7FE JUMP JUMPDEST SWAP3 SWAP2 POP POP JUMP JUMPDEST PUSH0 PUSH1 0x20 DUP3 DUP5 SUB SLT ISZERO PUSH2 0x83D JUMPI PUSH2 0x83C PUSH2 0x7CA JUMP JUMPDEST JUMPDEST PUSH0 PUSH2 0x84A DUP5 DUP3 DUP6 ADD PUSH2 0x814 JUMP JUMPDEST SWAP2 POP POP SWAP3 SWAP2 POP POP JUMP JUMPDEST PUSH0 DUP2 SWAP1 POP SWAP2 SWAP1 POP JUMP JUMPDEST PUSH2 0x865 DUP2 PUSH2 0x853 JUMP JUMPDEST DUP3 MSTORE POP POP JUMP JUMPDEST PUSH0 PUSH1 0x20 DUP3 ADD SWAP1 POP PUSH2 0x87E PUSH0 DUP4 ADD DUP5 PUSH2 0x85C JUMP JUMPDEST SWAP3 SWAP2 POP POP JUMP JUMPDEST PUSH2 0x88D DUP2 PUSH2 0x853 JUMP JUMPDEST DUP2 EQ PUSH2 0x897 JUMPI PUSH0 PUSH0 REVERT JUMPDEST POP JUMP JUMPDEST PUSH0 DUP2 CALLDATALOAD SWAP1 POP PUSH2 0x8A8 DUP2 PUSH2 0x884 JUMP JUMPDEST SWAP3 SWAP2 POP POP JUMP JUMPDEST PUSH0 PUSH1 0x20 DUP3 DUP5 SUB SLT ISZERO PUSH2 0x8C3 JUMPI PUSH2 0x8C2 PUSH2 0x7CA JUMP JUMPDEST JUMPDEST PUSH0 PUSH2 0x8D0 DUP5 DUP3 DUP6 ADD PUSH2 0x89A JUMP JUMPDEST SWAP2 POP POP SWAP3 SWAP2 POP POP JUMP JUMPDEST PUSH2 0x8E2 DUP2 PUSH2 0x7ED JUMP JUMPDEST DUP3 MSTORE POP POP JUMP JUMPDEST PUSH0 PUSH1 0x20 DUP3 ADD SWAP1 POP PUSH2 0x8FB PUSH0 DUP4 ADD DUP5 PUSH2 0x8D9 JUMP JUMPDEST SWAP3 SWAP2 POP POP JUMP JUMPDEST PUSH0 DUP3 DUP3 MSTORE PUSH1 0x20 DUP3 ADD SWAP1 POP SWAP3 SWAP2 POP POP JUMP JUMPDEST PUSH32 0x4F6E6C792061646D696E2063616E207769746864726177000000000000000000 PUSH0 DUP3 ADD MSTORE POP JUMP JUMPDEST PUSH0 PUSH2 0x945 PUSH1 0x17 DUP4 PUSH2 0x901 JUMP JUMPDEST SWAP2 POP PUSH2 0x950 DUP3 PUSH2 0x911 JUMP JUMPDEST PUSH1 0x20 DUP3 ADD SWAP1 POP SWAP2 SWAP1 POP JUMP JUMPDEST PUSH0 PUSH1 0x20 DUP3 ADD SWAP1 POP DUP2 DUP2 SUB PUSH0 DUP4 ADD MSTORE PUSH2 0x972 DUP2 PUSH2 0x939 JUMP JUMPDEST SWAP1 POP SWAP2 SWAP1 POP JUMP JUMPDEST PUSH32 0x4E6F2045544820746F2077697468647261770000000000000000000000000000 PUSH0 DUP3 ADD MSTORE POP JUMP JUMPDEST PUSH0 PUSH2 0x9AD PUSH1 0x12 DUP4 PUSH2 0x901 JUMP JUMPDEST SWAP2 POP PUSH2 0x9B8 DUP3 PUSH2 0x979 JUMP JUMPDEST PUSH1 0x20 DUP3 ADD SWAP1 POP SWAP2 SWAP1 POP JUMP JUMPDEST PUSH0 PUSH1 0x20 DUP3 ADD SWAP1 POP DUP2 DUP2 SUB PUSH0 DUP4 ADD MSTORE PUSH2 0x9DA DUP2 PUSH2 0x9A1 JUMP JUMPDEST SWAP1 POP SWAP2 SWAP1 POP JUMP JUMPDEST PUSH0 DUP2 SWAP1 POP SWAP3 SWAP2 POP POP JUMP JUMPDEST POP JUMP JUMPDEST PUSH0 PUSH2 0x9F9 PUSH0 DUP4 PUSH2 0x9E1 JUMP JUMPDEST SWAP2 POP PUSH2 0xA04 DUP3 PUSH2 0x9EB JUMP JUMPDEST PUSH0 DUP3 ADD SWAP1 POP SWAP2 SWAP1 POP JUMP JUMPDEST PUSH0 PUSH2 0xA18 DUP3 PUSH2 0x9EE JUMP JUMPDEST SWAP2 POP DUP2 SWAP1 POP SWAP2 SWAP1 POP JUMP JUMPDEST PUSH32 0x455448205472616E73666572204661696C656400000000000000000000000000 PUSH0 DUP3 ADD MSTORE POP JUMP JUMPDEST PUSH0 PUSH2 0xA56 PUSH1 0x13 DUP4 PUSH2 0x901 JUMP JUMPDEST SWAP2 POP PUSH2 0xA61 DUP3 PUSH2 0xA22 JUMP JUMPDEST PUSH1 0x20 DUP3 ADD SWAP1 POP SWAP2 SWAP1 POP JUMP JUMPDEST PUSH0 PUSH1 0x20 DUP3 ADD SWAP1 POP DUP2 DUP2 SUB PUSH0 DUP4 ADD MSTORE PUSH2 0xA83 DUP2 PUSH2 0xA4A JUMP JUMPDEST SWAP1 POP SWAP2 SWAP1 POP JUMP JUMPDEST PUSH32 0x4465706F73697420616D6F756E74206D75737420626520677265617465722074 PUSH0 DUP3 ADD MSTORE PUSH32 0x68616E2030000000000000000000000000000000000000000000000000000000 PUSH1 0x20 DUP3 ADD MSTORE POP JUMP JUMPDEST PUSH0 PUSH2 0xAE4 PUSH1 0x25 DUP4 PUSH2 0x901 JUMP JUMPDEST SWAP2 POP PUSH2 0xAEF DUP3 PUSH2 0xA8A JUMP JUMPDEST PUSH1 0x40 DUP3 ADD SWAP1 POP SWAP2 SWAP1 POP JUMP JUMPDEST PUSH0 PUSH1 0x20 DUP3 ADD SWAP1 POP DUP2 DUP2 SUB PUSH0 DUP4 ADD MSTORE PUSH2 0xB11 DUP2 PUSH2 0xAD8 JUMP JUMPDEST SWAP1 POP SWAP2 SWAP1 POP JUMP JUMPDEST PUSH32 0x4E487B7100000000000000000000000000000000000000000000000000000000 PUSH0 MSTORE PUSH1 0x11 PUSH1 0x4 MSTORE PUSH1 0x24 PUSH0 REVERT JUMPDEST PUSH0 PUSH2 0xB4F DUP3 PUSH2 0x853 JUMP JUMPDEST SWAP2 POP PUSH2 0xB5A DUP4 PUSH2 0x853 JUMP JUMPDEST SWAP3 POP DUP3 DUP3 ADD SWAP1 POP DUP1 DUP3 GT ISZERO PUSH2 0xB72 JUMPI PUSH2 0xB71 PUSH2 0xB18 JUMP JUMPDEST JUMPDEST SWAP3 SWAP2 POP POP JUMP JUMPDEST PUSH32 0x4E487B7100000000000000000000000000000000000000000000000000000000 PUSH0 MSTORE PUSH1 0x32 PUSH1 0x4 MSTORE PUSH1 0x24 PUSH0 REVERT JUMPDEST PUSH0 PUSH2 0xBAF DUP3 PUSH2 0x853 JUMP JUMPDEST SWAP2 POP PUSH2 0xBBA DUP4 PUSH2 0x853 JUMP JUMPDEST SWAP3 POP DUP3 DUP3 SUB SWAP1 POP DUP2 DUP2 GT ISZERO PUSH2 0xBD2 JUMPI PUSH2 0xBD1 PUSH2 0xB18 JUMP JUMPDEST JUMPDEST SWAP3 SWAP2 POP POP JUMP INVALID LOG2 PUSH5 0x6970667358 0x22 SLT KECCAK256 0xE8 PUSH17 0xA0A7880FE767AFC724CACDCC0C66B686C3 0x2E SSTORE BALANCE MSTORE8 0xBE PUSH20 0xBD46CA55F7A1EC64736F6C634300081F00330000 "
				},
				"gasEstimates": {
					"creation": {
						"codeDepositCost": "617200",
						"executionCost": "24913",
						"totalCost": "642113"
					},
					"external": {
						"admin()": "2573",
						"balances(address)": "2780",
						"deposit()": "infinite",
						"top3Users(uint256)": "2817",
						"withdraw()": "infinite"
					},
					"internal": {
						"_sortTop3()": "infinite",
						"_updateTop3(address)": "infinite"
					}
				},
				"methodIdentifiers": {
					"admin()": "f851a440",
					"balances(address)": "27e235e3",
					"deposit()": "d0e30db0",
					"top3Users(uint256)": "42e6fe58",
					"withdraw()": "3ccfd60b"
				}
			},
			"storageLayout": {
				"storage": [
					{
						"astId": 3,
						"contract": "bank.sol:SimpleBank",
						"label": "admin",
						"offset": 0,
						"slot": "0",
						"type": "t_address"
					},
					{
						"astId": 7,
						"contract": "bank.sol:SimpleBank",
						"label": "balances",
						"offset": 0,
						"slot": "1",
						"type": "t_mapping(t_address,t_uint256)"
					},
					{
						"astId": 11,
						"contract": "bank.sol:SimpleBank",
						"label": "top3Users",
						"offset": 0,
						"slot": "2",
						"type": "t_array(t_address)3_storage"
					}
				],
				"types": {
					"t_address": {
						"encoding": "inplace",
						"label": "address",
						"numberOfBytes": "20"
					},
					"t_array(t_address)3_storage": {
						"base": "t_address",
						"encoding": "inplace",
						"label": "address[3]",
						"numberOfBytes": "96"
					},
					"t_mapping(t_address,t_uint256)": {
						"encoding": "mapping",
						"key": "t_address",
						"label": "mapping(address => uint256)",
						"numberOfBytes": "32",
						"value": "t_uint256"
					},
					"t_uint256": {
						"encoding": "inplace",
						"label": "uint256",
						"numberOfBytes": "32"
					}
				}
			},
			"userdoc": {
				"kind": "user",
				"methods": {},
				"version": 1
			}
		}
	}
}